:020000020000FC
:0E000000202048483A4D4D3A535300000AC0A4
:1000200025C00FEF0DBF04E00EBF5527CC27DD27FD
:1000300001E000936E0001E005BD03BF59D0992790
:10004000E0E0F0E049D001D07894B1E0A0E070E3C6
:100050008AE37D937D938D937D937D938D937D93A3
:100060007D9370E07D9308958895FECF0F930FB731
:100070000F932196D23059F4CC27DD2753950BD01E
:1000800050FB16F41EF003C0589A01C058980F9107
:100090000FBF0F91189531E013D005D091E0B1E07A
:1000A000A0E01AD00895429A419860E064B965B919
:1000B000409A63B1409867FDFBCF6FEF64B9089534
:1000C00041984298409A35B940980895419A42988B
:1000D000409A35B940980895903009F002C03591A2
:1000E00001C03D91303019F0F1DFDDDFF5CF08952B
:1000F0006FEF64B967B938E3E3DFD5DF31E0E0DF04
:0C010000D2DF32E0DDDFCFDF0895AECFAC
:00000001FF
