:020000020000FC
:0200000011C02D
:020006003BC0FD
:1000200038C028C00FEF0DBF04E00EBF5527CC2706
:10003000DD27112701E00093680000936B00009317
:100040006E0005BD08D0E2D09927E8E2F2E0D2D0F8
:10005000B4D078940FC0B1E0A0E070E38AE37D9360
:100060007D938D937D937D938D937D937D9370E0B0
:100070007D9308950FEF0DBF78948895FBCF13956E
:10008000123009F00895112716F068940895E89445
:10009000089586F70F930FB70F932196D23059F436
:1000A000CC27DD2753950BD050FB16F41EF003C070
:1000B000589A01C058980F910FBF0F91189531E0D1
:1000C0008DD07FD091E006D0B1E0A0E093D075D084
:1000D00061D00895B1E0A0E087E0A80F8C918395EE
:1000E0008A3311F08C930895B1E0A0E086E0A80F68
:1000F0008C918395863331F08D9380E38C930895B2
:10010000AACF0895B1E0A0E084E0A80F8C91839578
:100110008A3339F08D938AE38D9380E38D938D93A9
:100120000895B1E0A0E083E0A80F8C918395863319
:1001300049F08D9380E38D938AE38D9380E38D93D3
:100140008D930895B1E0A0E081E0A80F8C91839594
:100150008A3361F08D938AE38D9380E38D938D9341
:100160008AE38D9380E38D938D930895B1E0A0E0B1
:1001700080E0A80F8C9183958D9380E38D938AE323
:100180008D9380E38D938D938AE38D9380E38D939C
:100190008D930895B1E0A0E08D917C91823309F0B8
:1001A0000895743309F00895ABDFB1E0A0E031E0C9
:1001B00015D007D01FD001D00895662764B963B960
:1001C0000895429A419860E064B965B9409A63B174
:1001D000409867FDFBCF6FEF64B90895419842984E
:1001E000409A35B940980895419A4298409A35B955
:1001F00040980895903009F002C0359101C03D91BA
:10020000303019F0F1DFDDDFF5CF08956FEF64B91D
:1002100067B938E3E3DFD5DF31E0E0DFD2DF32E09A
:10022000DDDFCFDF089526CF48483A4D4D3A53538E
:10023000000052413A20303833333832204D4334B5
:040240003034000056
:00000001FF
