:020000020000FC
:0200000010C02E
:0200060052C0E6
:1000200055C00FEF0DBF04E00EBF5527CC27DD27CD
:10003000112701E00093680001E000936B0000933A
:100040006E0005BD03BF08D001D19927E8E6F2E0B4
:10005000F1D0D3D0789423C0B1E0A0E070E38AE37C
:1000600072E37D9373E37D938D9375E37D9379E3E1
:100070007D938D9375E37D937D9370E07D930895DB
:10008000B1E0A0E070E38AE37D937D938D937D934F
:100090007D938D937D937D9370E07D9308950FEF15
:1000A0000DBF662763B978948895F9CF63B169303D
:1000B00019F0603151F00895662765B916F068941B
:1000C0000895662763B9E8940895089546F70F9355
:1000D0000FB70F932196D13061F400C0CC27DD27F4
:1000E00053950BD050FB16F41EF003C0589A01C074
:1000F00058980F910FBF0F911895113051F031E0C2
:100100008DD07FD091E006D0B1E0A0E093D075D043
:1001100061D00895B1E0A0E087E0A80F8C918395AD
:100120008A3311F08C930895B1E0A0E086E0A80F27
:100130008C918395863331F08D9380E38C93089571
:100140009FCF0895B1E0A0E084E0A80F8C91839543
:100150008A3339F08D938AE38D9380E38D938D9369
:100160000895B1E0A0E083E0A80F8C9183958633D9
:1001700049F08D9380E38D938AE38D9380E38D9393
:100180008D930895B1E0A0E081E0A80F8C91839554
:100190008A3361F08D938AE38D9380E38D938D9301
:1001A0008AE38D9380E38D938D930895B1E0A0E071
:1001B00080E0A80F8C9183958D9380E38D938AE3E3
:1001C0008D9380E38D938D938AE38D9380E38D935C
:1001D0008D930895B1E0A0E08D917C91823309F078
:1001E0000895743309F00895ABDFB1E0A0E031E089
:1001F00015D007D01FD001D00895662764B963B920
:100200000895429A419860E064B965B9409A63B133
:10021000409867FDFBCF6FEF64B90895419842980D
:10022000409A35B940980895419A4298409A35B914
:1002300040980895903009F002C0359101C03D9179
:10024000303019F0F1DFDDDFF5CF08956FEF64B9DD
:1002500067B938E3E3DFD5DF31E0E0DFD2DF32E05A
:10026000DDDFCFDF08951BCF48483A4D4D3A535359
:10027000000052413A20303833333832204D433475
:040280003034000016
:00000001FF
