:020000020000FC
:1000000048483A4D4D3A5353000052413A20303857
:0E00100033333832204D43343034000003C007
:100020002EC014C00FEF0DBF04E00EBF5527CC2724
:10003000DD2701E000936E0001E005BD03BFD5D0D0
:100040009927E0E0F0E0C5D009D000C075B170FBA1
:100050000EF002C0789411C0F894F8CFB1E0A0E09F
:1000600070E38AE37D937D938D937D937D938D9350
:100070007D937D9370E07D9308958895FECF0F93D7
:100080000FB70F932196D13059F4CC27DD27539524
:100090000BD050FB16F41EF003C0589A01C05898BC
:1000A0000F910FBF0F91189531E087D079D091E073
:1000B00005D0B1E0A0E08DD061D00895B1E0A0E01E
:1000C00087E0A80F8C9183958A3311F08C93089563
:1000D000B1E0A0E086E0A80F8C918395863331F0E3
:1000E0008D9380E38C930895B9CF0895B1E0A0E09B
:1000F00084E0A80F8C9183958A3339F08D938AE33D
:100100008D9380E38D938D930895B1E0A0E083E01B
:10011000A80F8C918395863349F08D9380E38D935E
:100120008AE38D9380E38D938D930895B1E0A0E0F1
:1001300081E0A80F8C9183958A3361F08D938AE3D7
:100140008D9380E38D938D938AE38D9380E38D93DC
:100150008D930895B1E0A0E080E0A80F8C91839585
:100160008D9380E38D938AE38D9380E38D938D93BC
:100170008AE38D9380E38D938D930895B1E0A0E0A1
:100180008D917C91823309F00895743309F00895BC
:10019000ABDFB1E0A0E031E010D002D01AD008957A
:1001A000429A419860E064B965B9409A63B1409859
:1001B00067FDFBCF6FEF64B9089541984298409A6C
:1001C00035B940980895419A4298409A35B9409877
:1001D0000895903009F002C0359101C03D91303052
:1001E00019F0F1DFDDDFF5CF08956FEF64B967B97E
:1001F00038E3E3DFD5DF31E0E0DFD2DF32E0DDDF1F
:06020000CFDF08953ACFA4
:00000001FF
