:020000020000FC
:0C00000048483A4D4D3A535300000BC0E5
:100020002AC00FEF0DBF04E00EBF5527CC27DD27F8
:1000300001E000936E0001E005BD03BFC1D0992728
:10004000E0E0F0E0B1D001D07894B1E0A0E070E35E
:100050008AE371E37D9379E37D938D9375E37D93DB
:1000600079E37D938D9375E37D937D9370E07D932C
:1000700008958895FECF0F930FB70F932196D13037
:1000800059F4CC27DD2753950BD050FB16F41EF006
:1000900003C0589A01C058980F910FBF0F9118953F
:1000A00031E076D068D091E004D0B1E0A0E07CD01F
:1000B0000895B1E0A0E087E0A80F8C9183958A3382
:1000C00011F08C930895B1E0A0E086E0A80F8C9128
:1000D0008395863331F08D9380E38C930895B5CF6B
:1000E0000895B1E0A0E084E0A80F8C9183958A3355
:1000F00039F08D938AE38D9380E38D938D930895EA
:10010000B1E0A0E083E0A80F8C918395863349F09D
:100110008D9380E38D938AE38D9380E38D938D930C
:100120000895B1E0A0E081E0A80F8C9183958A3317
:1001300061F08D938AE38D9380E38D938D938AE3B1
:100140008D9380E38D938D930895B1E0A0E080E0DE
:10015000A80F8C918395833311F28D9380E38D9357
:100160008AE38D9380E38D938D938AE38D9380E36F
:100170008D938D930895429A419860E064B965B972
:10018000409A63B1409867FDFBCF6FEF64B9089563
:1001900041984298409A35B940980895419A4298BA
:1001A000409A35B940980895903009F002C03591D1
:1001B00001C03D91303019F0F1DFDDDFF5CF08955A
:1001C0006FEF64B967B938E3E3DFD5DF31E0E0DF33
:0C01D000D2DF32E0DDDFCFDF08954BCF3F
:00000001FF
