:020000020000FC
:1000000026D000C05FEF5DBF54E05EBF80E05527A3
:1000100088D0E6D255277DD0EEEAF6E0D4D2B6D22B
:1000200051E077D0B1E0A0E0552763D06AD0F1E08D
:10003000EAE251935193508301D00AC0BFE0B4B9B2
:10004000BB27BAB9CEEFBFEFB9B9C5B908950895C6
:10005000BFEFB9B9C5B9B9B1B295BF70BF3031F40E
:100060000894CC1FCF3EA1F7CEEFF2CFCE3F39F0B0
:10007000CD3F79F0CB3FB9F0C73FF9F0E9CFBE30C3
:1000800079F1BD3081F1BB3081F1B73039F1D6DF84
:10009000DFCFBE3031F1BD3039F1BB3039F1B7308F
:1000A000F1F0CCDFD5CFBE30E9F0BD3001F1BB308F
:1000B000F9F0B73091F0C2DFCBCFBE3051F0BD3098
:1000C00049F0BB3041F0B73039F0B8DFC1CFB6DF0F
:1000D000BFCFB6C0D6C0E4C0F1C0FEC09CC02DC02A
:1000E00037C041C04BC055C05FC074C07EC067C040
:1000F00087C0F1E0EAE450830895F1E0EAE450813A
:100100000895F1E0ECE550830895F1E0ECE55081CD
:100110000895D1E0CAE558830895D1E0CAE5588131
:100120000895D1E0CBE558830895D1E0CBE558811F
:100130000895FBDF503059F60895FBDF60E3E4D10A
:10014000882450E0952E5527D4DFBED177DF80CFAD
:10015000F0DF61E3D9D1882451E0952E5527C9DF1E
:10016000B3D16CDF75CFE5DF62E3CED1882452E0F6
:10017000952E5527BEDFA8D161DF6ACFDADF63E3B2
:10018000C3D1882453E0952E5527B3DF9DD156DF88
:100190005FCFCFDF64E3B8D1882454E0952E552794
:1001A000A8DF92D14BDF54CFC4DF65E3ADD1882403
:1001B00055E0952E55279DDF87D140DF49CFB9DF28
:1001C00066E3A2D1882456E0952E552792DF7CD194
:1001D00035DF3ECFAEDF67E397D1882457E0952E19
:1001E000552787DF71D12ADF33CFA3DF68E38CD1B6
:1001F000882458E0952E55277CDF66D11FDF28CF55
:1002000098DF69E381D1882459E0952E552771DF65
:100210005BD114DF1DCFF5CE5D2F553059F0543032
:1002200009F008955C2F5C3F09F00895DEBFCDBF53
:1002300005DF0ECF54E05EBF5FEF5DBFFFDE08CF8E
:1002400078DF8827DEB7CDB7E7DF41E0B0D1AF90E8
:100250009F91AF91BF91CF91DF915A2D503019F4FA
:10026000B03051F456C0B03009F406C0E894A7F895
:10027000B7F951E046DF4DC0BA2CE894B7F8B7F9AA
:1002800094C057DF8827DEB7CDB7C6DF41E08FD1F6
:10029000BF91CF91DF91BF909F91AF9186C006C172
:1002A00048DF8827DEB7CDB7B7DF41E080D1BF9107
:1002B000CF91DF91BF909F91AF9149C03ADF8827DE
:1002C000DEB7CDB7A9DF41E072D1BF91CF91DF9109
:1002D000BF909F91AF914DC0F1E0EAE2B190919152
:1002E000A081582F83E0AF939F93BF9260E0560F99
:1002F000B1E0A52F5CE25D9350E35D935D935527DC
:100300005D9341E054D1B1E0A0E05DD13FD196DEF4
:100310009FCE5A2D503009F402C0B03061F4AB0EBC
:100320009C1FAD1FF1E0EAE2A1929193A083AF93ED
:100330009F93AF925FC05527ECDE51E0F2DEEEEB0B
:10034000F6E041D123D151E0E4DE78DE81CE5B2DB1
:10035000503089F7B03079F7192F0A2F3C2F2D2F05
:10036000F2D0A42C932DA22DAF939F93AF9242C0B5
:100370001CC0C03009F011C0D03009F00EC05527A4
:10038000C8DE41E051E0CDDE12D1E0EBF6E01BD15A
:10039000FDD051E0BEDE52DE5BCE192F0A2F3C2F7E
:1003A0002D2FE1D0912FA02F48C0BB1628F09C170D
:1003B00018F0AD1708F00BC051E0A3DEBF929F9379
:1003C000AF93BB2E9C2FAD2FDF91CF91BF91AD1B73
:1003D0009C0BBB0A513029F0AF939F93BF92AB2C7B
:1003E00009C06894B7F8AF939F93BF92AB2CE89481
:1003F000A7F800C041E0DBD06A2C092F1A2FF1E0EA
:10040000E0E0FBD05527F1E0E6E0508351E081DEEB
:10041000B1E0A0E07ADE503031F4552772DED3D05F
:10042000B5D00CDE15CE5DE2F1E0E0E0508355275B
:1004300068DEC9D0ABD002DE0BCE41E0B8D0092FC8
:100440001A2FF1E0E0E0D9D05CE2F1E0E6E0519370
:1004500054E6AE2D9F2DA59F102D012D3B2F2C2F47
:1004600082D00027112FC9D0F1E0EBE05081F1E0FC
:10047000E7E0503211F0508302C050E35083F1E0C6
:10048000ECE05081F1E0E8E050835527F1E0E9E04D
:10049000508351E03EDEB1E0A0E037DE503019F687
:1004A00055272FDE90D072D0C9DDD2CD552731DE51
:1004B00041E051E036DE7BD0ECECF6E084D066D053
:1004C00051E027DEBBDDC4CDF1E0EAE2B19051910D
:1004D0006081813011F008C00895F1E0EAE2BB24A8
:1004E000B192819290820895152F062F30E02AE074
:1004F0002AD0532D622D580D691DF1E0EAE2BB248C
:10050000B1925193608308958395843041F0B1E0B6
:10051000A0E0A80FA1506D9366276C930CC081E0FA
:10052000B1E0A0E055276D935D93F1E0EAE2552735
:10053000519351935083B1E0A0E041E038D02AD0EC
:1005400042D024D008954427139F402C512C029F61
:10055000202C312C129F300C411C541E039F300C58
:10056000411C541E0895EE24FF1871E1001F111F55
:100570007A9509F40895EE1CFF1CE21AF30A20F4A0
:10058000E20EF31E8894F2CF0894F0CF552754B9A9
:1005900055B90895429A419850E054B955B9409AD6
:1005A00053B1409857FDFBCF5FEF54B90895419880
:1005B0004298409A45B940980895419A4298409A85
:1005C00045B940980895A9DD503009F002C0459121
:1005D00001C04D91403019F0F0DFDCDFF4CF089519
:1005E0005FEF54B957B948E3E2DFD4DF41E0DFDF22
:1005F000D1DF42E0DCDFCEDF089508D045E0342FC4
:100600003A9541914032E1F33197089512D045E097
:10061000342F4081442329F440E241933A95C9F7AD
:1006200040813395405D419340813A95D9F73497A5
:1006300008956F920F931F9341E0742E46E8242F84
:1006400040EA342F22D040E0742E47E2242F40E1CC
:10065000342F1BD040E0742E43E0242F48EE342F7B
:1006600014D040E0742E40E0242F44E6342F0DD007
:1006700040E0742E40E0242F4AE0342F06D010834F
:1006800035971F910F916F9008954427671458F084
:1006900029F4021740F011F4131728F0131B020B72
:1006A00067084395F3CF41930895C8DCD1CC30005F
:1006B00045203D2064697620706F7220300045200F
:1006C0003D20707265636973616F000045203D20B5
:0A06D0006F706572616E646F3F0089
:00000001FF
