:020000020000FC
:1000000026D000C05FEF5DBF54E05EBF80E05527A3
:1000100088D031D355277DD0E4E4F7E01FD301D356
:1000200051E077D0B1E0A0E0552763D06AD0F1E08D
:10003000EAE251935193508301D00AC0BFE0B4B9B2
:10004000BB27BAB9CEEFBFEFB9B9C5B908950895C6
:10005000BFEFB9B9C5B9B9B1B295BF70BF3031F40E
:100060000894CC1FCF3EA1F7CEEFF2CFCE3F39F0B0
:10007000CD3F79F0CB3FB9F0C73FF9F0E9CFBE30C3
:1000800079F1BD3081F1BB3081F1B73039F1D6DF84
:10009000DFCFBE3031F1BD3039F1BB3039F1B7308F
:1000A000F1F0CCDFD5CFBE30E9F0BD3001F1BB308F
:1000B000F9F0B73091F0C2DFCBCFBE3051F0BD3098
:1000C00049F0BB3041F0B73039F0B8DFC1CFB6DF0F
:1000D000BFCFB6C0DFC009C116C123C19CC02DC0AF
:1000E00037C041C04BC055C05FC074C07EC067C040
:1000F00087C0F1E0EAE450830895F1E0EAE450813A
:100100000895F1E0ECE550830895F1E0ECE55081CD
:100110000895D1E0CAE558830895D1E0CAE5588131
:100120000895D1E0CBE558830895D1E0CBE558811F
:100130000895FBDF503059F60895FBDF60E32FD2BE
:10014000882450E0952E5527D4DF09D277DF80CF61
:10015000F0DF61E324D2882451E0952E5527C9DFD2
:10016000FED16CDF75CFE5DF62E319D2882452E05F
:10017000952E5527BEDFF3D161DF6ACFDADF63E367
:100180000ED2882453E0952E5527B3DFE8D156DFF1
:100190005FCFCFDF64E303D2882454E0952E552748
:1001A000A8DFDDD14BDF54CFC4DF65E3F8D188246D
:1001B00055E0952E55279DDFD2D140DF49CFB9DFDD
:1001C00066E3EDD1882456E0952E552792DFC7D1FE
:1001D00035DF3ECFAEDF67E3E2D1882457E0952ECE
:1001E000552787DFBCD12ADF33CFA3DF68E3D7D120
:1001F000882458E0952E55277CDFB1D11FDF28CF0A
:1002000098DF69E3CCD1882459E0952E552771DF1A
:10021000A6D114DF1DCFF5CE5D2F553059F05430E7
:1002200009F008955C2F5C3F09F00895DEBFCDBF53
:1002300005DF0ECF54E05EBF5FEF5DBFFFDE08CF8E
:1002400078DF8827DEB7CDB7E7DF41E0FBD1AF909D
:100250009F91AF91BF91CF91DF915A2D503019F4FA
:10026000B03089F47DC0B03009F406C0E894A7F836
:10027000B7F951E046DF74C0BA2CE894B7F8B7F983
:1002800055273FDFCBC0BA2CE894B7F8B7F955270C
:1002900038DFC4C04EDF8827DEB7CDB7BDDF41E011
:1002A000D1D1BF91CF91DF91BF909F91AF91BF927C
:1002B000BF93BB26B7FA1EF4BF91BF9008C0BF9191
:1002C000BF90B7FA56F0E894B7F8B7F9A7C0E8942A
:1002D000B7F8B7F951E015DF43C0E894B7F8B7F9BC
:1002E00051E00FDF9BC0B4CE2CC123DF8827DEB7DF
:1002F000CDB792DF41E0A6D1BF91CF91DF91BF9002
:100300009F91AF914BC015DF8827DEB7CDB784DF53
:1003100041E098D1BF91CF91DF91BF909F91AF9174
:1003200061C0803001F3F1E0EAE2B1909191A081E7
:10033000582F83E0AF939F93BF9260E0560FB1E0D8
:10034000A52F5CE25D9350E35D935D9355275D932C
:1003500041E078D1B1E0A0E081D163D16FDE78CE09
:100360005A2D503009F402C0B03061F4AD0F9C1F1B
:10037000AB1EF1E0EAE2A1929193A083AF939F9329
:10038000AF9273C05527C5DE51E0CBDEE4E5F7E060
:1003900065D147D151E0BDDE51DE5ACEBF92BF9349
:1003A000E894B7F8B7F95B2D503061F7B03051F7EA
:1003B000192F0A2F3C2F2D2F11D1A42C932DA22DB4
:1003C000F1E0EAE2A1929193A083BF91BF90AF9335
:1003D0009F93AF92BB26B7FA0EF047C051E091DE73
:1003E00044C01CC0C03009F011C0D03009F00EC0AC
:1003F00055278FDE41E051E094DE24D1E6E4F7E0BA
:100400002DD10FD151E085DE19DE22CE192F0A2F12
:100410003C2F2D2FF3D0912FA02F4AC0BB1638F0C0
:100420009C1728F0903071F4AD1708F00BC051E024
:1004300068DEBF929F93AF93BB2E9C2FAD2FDF91B1
:10044000CF91BF91AD1B9C0BBB0A513029F0AF93EC
:100450009F93BF92AB2C09C06894B7F8AF939F935A
:10046000BF92AB2CE894A7F800C041E0EBD06A2C17
:10047000092F1A2FF1E0E0E00BD15527F1E0E6E07B
:10048000508351E046DEB1E0A0E03FDE503031F471
:10049000552737DEE3D0C5D0D1DDDACD5DE2F1E01E
:1004A000E0E0508355272DDED9D0BBD0C7DDD0CDBD
:1004B00041E0C8D0092F1A2FF1E0E0E0E9D05CE27A
:1004C000F1E0E6E0519330D050304AF054E6AE2DE2
:1004D0009F2DA59F112D002D3C2F2D2F8FD0112743
:1004E000102FD6D0F1E0EBE05081F1E0E7E05032A0
:1004F00011F0508302C050E35083F1E0ECE05081F2
:10050000F1E0E8E050835527F1E0E9E0508351E065
:1005100000DEB1E0A0E0F9DD503001F65527F1DD55
:100520009DD07FD08BDD94CDCF93DF93CE2DDF2D6B
:1005300021970AF002C0002711275C2FDF91CF918D
:1005400008955527E6DD41E051E0EBDD7BD0E2E6A2
:10055000F7E084D066D051E0DCDD70DD79CDF1E0EC
:10056000EAE2B19051916081813011F008C00895A4
:10057000F1E0EAE2BB24B192819290820895152FB6
:10058000062F30E02AE02AD0532D622D580D691D28
:10059000F1E0EAE2BB24B192519360830895839520
:1005A000843041F0B1E0A0E0A80FA1506D93662720
:1005B0006C930CC081E0B1E0A0E055276D935D9392
:1005C000F1E0EAE25527519351935083B1E0A0E066
:1005D00041E038D02AD042D024D008954427139F38
:1005E000402C512C029F202C312C129F300C411C8E
:1005F000541E039F300C411C541E0895EE24FF1816
:1006000071E1001F111F7A9509F40895EE1CFF1C7B
:10061000E21AF30A20F4E20EF31E8894F2CF089453
:10062000F0CF552754B955B90895429A419850E0F2
:1006300054B955B9409A53B1409857FDFBCF5FEF7D
:1006400054B9089541984298409A45B94098089500
:10065000419A4298409A45B9409808955EDD5030DD
:1006600009F002C0459101C04D91403019F0F0DF12
:10067000DCDFF4CF08955FEF54B957B948E3E2DF08
:10068000D4DF41E0DFDFD1DF42E0DCDFCEDF089501
:1006900008D045E0342F3A9541914032E1F331974B
:1006A000089512D045E0342F4081442329F440E2DC
:1006B00041933A95C9F740813395405D419340811C
:1006C0003A95D9F7349708956F920F931F9341E0AD
:1006D000742E46E8242F40EA342F22D040E0742EB6
:1006E00047E2242F40E1342F1BD040E0742E43E03A
:1006F000242F48EE342F14D040E0742E40E0242FF5
:1007000044E6342F0DD040E0742E40E0242F4AE020
:10071000342F06D0108335971F910F916F90089555
:100720004427671458F029F4021740F011F4131706
:1007300028F0131B020B67084395F3CF41930895EC
:100740007DDC86CC300045203D2064697620706FCA
:100750007220300045203D20707265636973616FBF
:10076000000045203D206F706572616E646F3F0030
:00000001FF
