:020000020000FC
:1000000031D000C091E0A2ECB1E0C4EFAC1B9B0B7F
:100010005FEF5DBF54E05EBF80E055279AD0A7D266
:1000200055278FD0ECE1F6E095D277D251E089D018
:10003000B1E0A0E055276DD078D0F1E0EAE251932D
:100040005083F1E0EAE351935083F2E0EAE001D01B
:100050000AC0BFE0B4B9BB27BAB9CEEFBFEFB9B998
:10006000C5B9089508955FEF5DBF54E05EBF55D2F6
:10007000BFEFB9B9C5B9B9B1B295BF70BF3031F4EE
:100080000894CC1FCF3E79F7CEEFEDCFCE3F39F0BD
:10009000CD3F79F0CB3FB9F0C73FF9F0E4CFBE30A8
:1000A00079F1BD3081F1BB3081F1B73039F1D1DF69
:1000B000DACFBE3031F1BD3039F1BB3039F1B73074
:1000C000F1F0C7DFD0CFBE30E9F0BD3001F1BB3079
:1000D000F9F0B73091F0BDDFC6CFBE3051F0BD3082
:1000E00049F0BB3041F0B73039F0B3DFBCCFB1DFFE
:1000F000BACF96C0A7C0B9C0CAC0DBC090C035C0D7
:100100003DC045C04DC055C05DC06EC076C063C027
:100110007DC0F1E0EAE45083F2E0EAE00895F1E026
:10012000EAE45081F2E0EAE00895F1E0ECE5508382
:10013000F2E0EAE00895F1E0ECE55081F2E0EAE077
:100140000895D1E0CAE558830895D1E0CAE5588101
:100150000895D1E0CBE558830895D1E0CBE55881EF
:100160000895FBDF503019F60895FBDF60E385D179
:10017000882450E0952E37D16CDF75CFF2DF61E334
:100180007CD1882451E0952E2ED163DF6CCFE9DF3E
:1001900062E373D1882452E0952E25D15ADF63CFD4
:1001A000E0DF63E36AD1882453E0952E1CD151DF50
:1001B0005ACFD7DF64E361D1882454E0952E13D160
:1001C00048DF51CFCEDF65E358D1882455E0952E26
:1001D0000AD13FDF48CFC5DF66E34FD1882456E020
:1001E000952E01D136DF3FCFBCDF67E346D18824AF
:1001F00057E0952EF8D02DDF36CFB3DF68E33DD141
:10020000882458E0952EEFD024DF2DCFAADF69E3B4
:1002100034D1882459E0952EE6D01BDF24CFF1CECF
:10022000A0DF882741E08AD155278BDFEEE1F6E099
:1002300091D173D1F2E0EAE051E06BDF51E081DF70
:1002400008DF11CF8EDF882741E078D1552779DF8D
:10025000E0E2F6E07FD161D1F2E0EAE054E059DF7C
:1002600051E06FDFF6DEFFCEAEC07BDF882741E0D6
:1002700065D1552766DFE2E2F6E06CD14ED1F2E0BF
:10028000EAE052E046DF51E05CDFE3DEECCE69DF1E
:10029000882741E053D1552754DFE4E2F6E05AD1F4
:1002A0003CD1F2E0EAE053E034DF51E04ADFD1DE56
:1002B000DACE35DF5030C1F2F1E0EAE29191A0816F
:1002C000F1E0EAE3B191C081F2E0EAE0513041F0BF
:1002D000523059F0533029F1543011F1BADEC3CE07
:1002E000AC0F9B1F4ED0B5DEBECE192F0A2F3B2F71
:1002F0002C2FF0D028F0932DA22D43D0AADEB3CE20
:1003000055271FDF41E051E024DF18D1E4E3F6E098
:1003100021D103D1F2E0EAE051E013DF9ADEA3CE6F
:100320001EC0B03009F011C0C03009F00EC0552712
:1003300008DF41E051E00DDF01D1E6E2F6E00AD14D
:10034000ECD051E0FEDE85DE8ECE192F0A2F3B2F3A
:100350002C2FD0D0912FA02F14D07BDE84CE9B17D2
:1003600018F0AC1708F008C051E0DFDE9F93AF93A0
:100370009B2FAC2FCF91BF91AC1B9B0B02D069DEA2
:1003800072CE41E0DBD0092F1A2FF1E0E0E0FCD083
:100390005527F1E0E6E0508351E0D3DEB1E0A0E084
:1003A000CADE503029F45527C0DED4D0B6D0089527
:1003B0005DE2F1E0E0E05083F2E0EAE05527B5DEEF
:1003C000C9D0ABD008955527BCDE41E051E0C1DE75
:1003D000B5D0E2E4F6E0BED0A0D0F2E0EAE051E031
:1003E000B0DE37DE40CE9BDE503019F5F1E0EAE2B8
:1003F00051916081F2E0EAE0813011F00AC0089585
:10040000580D691DF1E0EAE251936083F2E0EAE001
:100410000895152F062F30E02AE05CD0532D622D71
:10042000580D691DF1E0EAE251936083F2E0EAE0E1
:100430000895F1E0EAE351916081F2E0EAE0813071
:1004400011F00AC00895580D691DF1E0EAE35193D7
:100450006083F2E0EAE00895152F062F30E02AE0ED
:1004600039D0532D622D580D691DF1E0EAE3519307
:100470006083F2E0EAE0089508958395843041F0C6
:10048000B1E0A0E0A80FA1506D9366276C931AC04D
:1004900081E0B1E0A0E055276D935D9340DE5030E0
:1004A00011F009C00895F1E0EAE255275193508315
:1004B000F2E0EAE007C0F1E0EAE355275193508308
:1004C000F2E0EAE0B1E0A0E041E038D02AD042D04A
:1004D00024D008954427139F402C512C029F202C98
:1004E000312C129F300C411C541E039F300C411CB8
:1004F000541E0895EE24FF1871E1001F111F7A9514
:1005000009F40895EE1CFF1CE21AF30A20F4E20E2F
:10051000F31E8894F2CF0894F0CF552754B955B9FB
:100520000895429A419850E054B955B9409A53B150
:10053000409857FDFBCF5FEF54B90895419842981A
:10054000409A45B940980895419A4298409A45B9D1
:1005500040980895FADD503009F002C0459101C07D
:100560004D91403019F0F0DFDCDFF4CF08955FEFFC
:1005700054B957B948E3E2DFD4DF41E0DFDFD1DF30
:1005800042E0DCDFCEDF089508D045E0342F3A9515
:1005900041914032E1F33197089512D045E0342F74
:1005A0004081442329F440E241933A95C9F74081C0
:1005B0003395405D419340813A95D9F7349708953A
:1005C0000F931F9346E8242F40EA342F19D047E2B7
:1005D000242F40E1342F14D043E0242F48EE342F51
:1005E0000FD040E0242F44E6342F0AD040E0242FDF
:1005F0004AE0342F05D0108335971F910F9108954D
:100600004427021738F011F4131720F0131B020BC4
:100610004395F7CF419308951CDD25CD30002B0085
:100620002D002A002F0045203D2064697620706F40
:100630007220300045203D20707265636973616FE0
:10064000000045203D206F706572616E646F3F0051
:00000001FF
