:020000020000FC
:1000000032D000C050E091E0A2ECB1E0C4EFAC1BF4
:100010009B0B5FEF5DBF54E05EBF80E0552795D03E
:10002000E3D255278AD0E6E9F6E0D1D2B3D251E047
:1000300084D0B1E0A0E0552768D073D0F1E0EAE2C7
:1000400051935083F1E0EAE351935083F2E0EAE008
:1000500001D00AC0BFE0B4B9BB27BAB9CEEFBFEF39
:10006000B9B9C5B908950895BFEFB9B9C5B9B9B15E
:10007000B295BF70BF3031F40894CC1FCF3EA1F7CA
:10008000CEEFF2CFCE3F39F0CD3F79F0CB3FB9F094
:10009000C73FF9F0E9CFBE3079F1BD3081F1BB3017
:1000A00081F1B73039F1D6DFDFCFBE3031F1BD306D
:1000B00039F1BB3039F1B730F1F0CCDFD5CFBE30FC
:1000C000E9F0BD3001F1BB30F9F0B73091F0C2DF9B
:1000D000CBCFBE3051F0BD3049F0BB3041F0B7302E
:1000E00039F0B8DFC1CFB6DFBFCF96C0A7C0B9C067
:1000F000CAC0DBC090C035C03DC045C04DC055C072
:100100005DC06EC076C063C07DC0F1E0EAE450839C
:10011000F2E0EAE00895F1E0EAE45081F2E0EAE09A
:100120000895F1E0ECE55083F2E0EAE00895F1E0B3
:10013000ECE55081F2E0EAE00895D1E0CAE55883A9
:100140000895D1E0CAE558810895D1E0CBE5588300
:100150000895D1E0CBE558810895FBDF503019F6C2
:100160000895FBDF60E3C6D1882450E0952E78D156
:1001700071DF7ACFF2DF61E3BDD1882451E0952EA3
:100180006FD168DF71CFE9DF62E3B4D1882452E038
:10019000952E66D15FDF68CFE0DF63E3ABD18824C3
:1001A00053E0952E5DD156DF5FCFD7DF64E3A2D158
:1001B000882454E0952E54D14DDF56CFCEDF65E331
:1001C00099D1882455E0952E4BD144DF4DCFC5DF22
:1001D00066E390D1882456E0952E42D13BDF44CF90
:1001E000BCDF67E387D1882457E0952E39D132DF11
:1001F0003BCFB3DF68E37ED1882458E0952E30D121
:1002000029DF32CFAADF69E375D1882459E0952E22
:1002100027D120DF29CFF5CEA0DF882741E0CBD141
:1002200055278BDFE8E9F6E0D2D1B4D1F2E0EAE07D
:1002300051E06BDF51E081DF0DDF16CF8EDF8827C5
:1002400041E0B9D1552779DFEAE9F6E0C0D1A2D182
:10025000F2E0EAE054E059DF51E06FDFFBDE04CF6B
:10026000EFC07BDF882741E0A6D1552766DFECE9A8
:10027000F6E0ADD18FD1F2E0EAE052E046DF51E0A6
:100280005CDFE8DEF1CE69DF882741E094D15527B5
:1002900054DFEEE9F6E09BD17DD1F2E0EAE053E0F5
:1002A00034DF51E04ADFD6DEDFCE35DF5030C1F239
:1002B000F1E0EAE29191A081F1E0EAE3B191C0813D
:1002C000F2E0EAE0513041F0523059F05330A1F001
:1002D000543089F0BFDEC8CEAC0F9B1F57D0BADEBA
:1002E000C3CE192F0A2F3B2F2C2F31D1932DA22DA6
:1002F00033D0B0DEB9CE1EC0B03009F011C0C0306E
:1003000009F00EC0552719DF41E051E01EDF53D13F
:10031000E0EAF6E05CD13ED151E00FDF9BDEA4CEF7
:10032000192F0A2F3B2F2C2F22D1912FA02F50D0E5
:1003300091DE9ACE9B1718F0AC1708F008C051E078
:10034000F0DE9F93AF939B2FAC2FCF91BF91AC1B4F
:100350009B0B1CD07FDE88CE41E02DD1052D142DC6
:10036000F1E0E0E04ED1032D122D4BD15527F1E005
:10037000E6E0508351E0E1DEB1E0A0E0D8DE5030AD
:10038000E1F45527CEDE23D105D1089541E013D104
:10039000092F1A2FF1E0E0E034D15527F1E0E6E033
:1003A000508351E0CADEB1E0A0E0C1DE503029F454
:1003B0005527B7DE0CD1EED008955DE2F1E0E0E024
:1003C0005083F2E0EAE05527ACDE01D1E3D0089596
:1003D00041E0F1D0092F1A2FF1E0E0E012D15CE208
:1003E000F1E0E6E0519354E6AE2D9F2DA59F102D30
:1003F000012D3B2F2C2FBBD00027112F02D1F1E074
:10040000EBE05081F1E0E7E0503211F0508302C0A0
:1004100050E35083F1E0ECE05081F1E0E8E05083FC
:100420005527F1E0E9E0508351E087DEB1E0A0E03C
:100430007EDE503011F6552774DEC9D0ABD008955A
:1004400055277BDE41E051E080DEB5D0ECEBF6E0F5
:10045000BED0A0D0F2E0EAE051E06FDEFBDD04CEDA
:100460005ADE503019F5F1E0EAE251916081F2E094
:10047000EAE0813011F00AC00895580D691DF1E0DD
:10048000EAE251936083F2E0EAE00895152F062F27
:1004900030E02AE05CD0532D622D580D691DF1E04B
:1004A000EAE251936083F2E0EAE00895F1E0EAE3E2
:1004B00051916081F2E0EAE0813011F00AC00895C4
:1004C000580D691DF1E0EAE351936083F2E0EAE040
:1004D0000895152F062F30E02AE039D0532D622DD4
:1004E000580D691DF1E0EAE351936083F2E0EAE020
:1004F000089508958395843041F0B1E0A0E0A80FFD
:10050000A1506D9366276C931AC081E0B1E0A0E022
:1005100055276D935D93FFDD503011F009C00895AC
:10052000F1E0EAE2552751935083F2E0EAE007C098
:10053000F1E0EAE3552751935083F2E0EAE0B1E0BD
:10054000A0E041E038D02AD042D024D008954427FA
:10055000139F402C512C029F202C312C129F300CC9
:10056000411C541E039F300C411C541E0895EE2460
:10057000FF1871E1001F111F7A9509F40895EE1C10
:10058000FF1CE21AF30A20F4E20EF31E8894F2CF65
:100590000894F0CF552754B955B90895429A419817
:1005A00050E054B955B9409A53B1409857FDFBCF2C
:1005B0005FEF54B9089541984298409A45B94098E0
:1005C0000895419A4298409A45B940980895B9DDF6
:1005D000503009F002C0459101C04D91403019F0F2
:1005E000F0DFDCDFF4CF08955FEF54B957B948E38B
:1005F000E2DFD4DF41E0DFDFD1DF42E0DCDFCEDF6E
:10060000089508D045E0342F3A9541914032E1F306
:100610003197089512D045E0342F4081442329F4C6
:1006200040E241933A95C9F740813395405D41934B
:1006300040813A95D9F7349708950F931F9346E870
:10064000242F40EA342F19D047E2242F40E1342FE1
:1006500014D043E0242F48EE342F0FD040E0242F55
:1006600044E6342F0AD040E0242F4AE0342F05D04E
:10067000108335971F910F9108954427021738F082
:1006800011F4131720F0131B020B4395F7CF41937E
:100690000895E0DCE9CC30002B002D002A002F006B
:1006A00045203D2064697620706F7220300045201F
:1006B0003D20707265636973616F000045203D20C5
:0A06C0006F706572616E646F3F0099
:00000001FF
