:020000020000FC
:1000000000C00FEF0DBF04E00EBF10E07AD09927BB
:10001000EEE1F1E06AD04CD09395B1E0A0E011D0D0
:1000200013D015D014D028D00CD000C00FEF0DBFC6
:1000300004E00EBF78948895F9CF03B1013009F040
:10004000089501E31CD0089502E319D0089503E355
:1000500016D0089504E313D0089505E310D0089551
:1000600006E30DD0089507E30AD0089508E307D00A
:10007000089509E304D0089500E301D0089513958D
:10008000143041F0B1E0A0E0A10FA1500D93002782
:100090000C9306C011E0B1E0A0E022270D932D9350
:1000A000B1E0A0E031E015D007D01FD001D0089515
:1000B000002704B903B90895429A419800E004B9B1
:1000C00005B9409A03B1409807FDFBCF0FEF04B983
:1000D000089541984298409A35B940980895419AB8
:1000E0004298409A35B940980895903009F002C07E
:1000F000359101C03D91303019F0F1DFDDDFF5CFF2
:1001000008950FEF04B907B938E3E3DFD5DF31E035
:10011000E0DFD2DF32E0DDDFCFDF089587CF3000D0
:00000001FF
