:020000020000FC
:1000000074D200C05FEF5DBF54E05EBF80E0552753
:100010007FD015D2552774D0ECEEF4E003D2E5D1B1
:1000200051E06ED0B1E0A0E0552762D0F1E0EAE205
:1000300051935083F1E0EAE3519350830FE004B908
:100040001EEF0FEF03B9012305B900C05FEF5DBFDD
:1000500054E05EBFCAD10FEF03B9012305B903B164
:1000600002950F700F3039F40894111F1F3E71F77D
:100070001EEFECCFEBCF173F39F01B3F71F01D3F68
:10008000A9F01E3FE1F0E2CF0E3049F10D3051F101
:100090000B3051F1073011F1D9CF0E3009F10D308D
:1000A00011F10B3011F10730F9F1D0CF0E30C9F05A
:1000B0000D30E1F00B30D9F0073079F0C7CF0E30BA
:1000C00041F00D3039F00B3031F0073029F0BECF60
:1000D000BDCF7CC089C096C0A3C0B0C076C02CC0C4
:1000E00033C03AC041C049C058C05FC04EC065C0AF
:1000F000F1E0EAE450830895F1E0EAE450810895E4
:10010000D1E0CAE558830895D1E0CAE55881089541
:10011000D1E0CBE558830895D1E0CBE5588108952F
:10012000FBDF5030A9F60895FBDF60E312D188248D
:1001300050E0952ED0D00895F3DF61E30AD18824F2
:1001400051E0952EC8D082CFEBDF62E302D1882444
:1001500052E0952EC0D07ACFE3DF63E3FAD0882453
:1001600053E0952EB8D072CFDBDF64E3F2D0B3D08A
:10017000882454E0952EAFD069CFD2DF65E3E9D073
:10018000882455E0952EA7D061CFCADF66E3E1D081
:10019000882456E0952E9FD059CFC2DF67E3D9D08F
:1001A000882457E0952E97D051CFBADF68E3D1D09D
:1001B000882458E0952E8FD049CFB2DF69E3C9D0AB
:1001C000882459E0952E87D041CF1BCF882741E066
:1001D0001DD1552795DFEEEEF4E024D106D151E094
:1001E00087DF51E08DDF32CF882741E00FD15527DF
:1001F00087DFE0EFF4E016D1F8D054E079DF51E08A
:100200007FDF24CF882741E001D1552779DFE2EF56
:10021000F4E008D1EAD052E06BDF51E071DF16CF95
:10022000882741E0F3D055276BDFE4EFF4E0FAD004
:10023000DCD053E05DDF51E063DF08CF5DDF50309D
:10024000E9F1F1E0EAE29191A081F1E0EAE3B19114
:10025000C081513039F0523049F0533081F0543080
:10026000B9F0F4CE9B0FAC1F17D00895192F0A2FA9
:100270003B2F2C2F97D0932DA22D0ED00895192F00
:100280000A2F3B2F2C2F9ED09D2DAC2D05D00895ED
:100290009B1BAC0B01D0089541E0B8D0092F1A2F59
:1002A000F1E0E0E0D9D05527F1E0E6E0508351E0FD
:1002B00027DFB1E0A0E0B6D098D00895552720DF21
:1002C00041E051E025DFA2D0E2E1F5E0ABD08DD0F6
:1002D00051E016DFBBCE10DF5030E9F4F1E0EAE286
:1002E00051916081813011F008C00895580D691D49
:1002F000F1E0EAE2519360830895152F062F30E074
:100300002AE050D0532D622D580D691DF1E0EAE22C
:10031000519360830895F1E0EAE351916081813067
:1003200011F008C00895580D691DF1E0EAE35193FA
:1003300060830895152F062F30E02AE033D0532D27
:10034000622D580D691DF1E0EAE351936083089531
:1003500008958395843041F0B1E0A0E0A80FA1504A
:100360006D9366276C9316C081E0B1E0A0E055273D
:100370006D935D93C1DE503011F007C00895F1E038
:10038000EAE255275193508305C0F1E0EAE355278F
:1003900051935083B1E0A0E041E038D02AD042D060
:1003A00024D008954427139F402C512C029F202CC9
:1003B000312C129F300C411C541E039F300C411CE9
:1003C000541E0895AA24BB1871E1001F111F7A95CD
:1003D00009F40895AA1CBB1CA21AB30A20F4A20EA9
:1003E000B31E8894F2CF0894F0CF552754B953B96F
:1003F0000895429A419850E054B955B9409A53B182
:10040000409857FDFBCF5FEF54B90895419842984B
:10041000409A45B940980895419A4298409A45B902
:100420004098089571DE503009F002C0459101C036
:100430004D91403019F0F0DFDCDFF4CF08955FEF2D
:1004400054B957B948E3E2DFD4DF41E0DFDFD1DF61
:1004500042E0DCDFCEDF089508D045E0342F3A9546
:1004600041914032E1F33197089512D045E0342FA5
:100470004081442329F440E241933A95C9F74081F1
:100480003395405D419340813A95D9F7349708956B
:100490000F931F9346E8242F40EA342F19D047E2E8
:1004A000242F40E1342F14D043E0242F48EE342F82
:1004B0000FD040E0242F44E6342F0AD040E0242F10
:1004C0004AE0342F05D0108335971F910F9108957E
:1004D0004427021738F011F4131720F0131B020BF6
:1004E0004395F7CF41930895B1CD089530002B0087
:1004F0002D002A002F0045203D2064697620706F72
:100500007220300045203D20707265636973616F11
:10051000000045203D206F706572616E646F3F0082
:00000001FF
