:020000020000FC
:0200000008C036
:040006001CC01BC03F
:100010000FC00FEF0DBF04E00EBFCC27DD2704E0BB
:1000200000936E0001E005BD03BFE894789401C021
:1000300000C00FEF0DBF662763B978948895F9CF9C
:1000400063B1693009F00895662765B916F06894C0
:100050000895662763B9E8940895662764B963B97B
:100060000895429A419860E064B965B9409A63B1D5
:10007000409867FDFBCF6FEF64B9089541984298AF
:10008000409A35B940980895419A4298409A35B9B6
:1000900040980895903009F002C0359101C03D911B
:1000A000303019F0F1DFDDDFF5CF08956FEF64B97F
:1000B00067B938E3E3DFD5DF31E0E0DFD2DF32E0FC
:1000C000DDDFCFDF0895B5CF48483A4D4D3A535361
:1000D000000052413A20303833333832204D433417
:0400E00030340000B8
:00000001FF
