:020000020000FC
:10000000202048483A4D4D3A535300006F6E652109
:04001000000007C025
:100020001BC00FEF0DBF04E00EBF5527AA27BB274B
:1000300001E000936E0001E005BD03BF41D0E0E0A8
:10004000F0E037D03DD0ECE0F0E033D07894889504
:10005000FECF112715BDFFCF0F930FB70F9311964A
:10006000B23051F4AA27BB27539550FB16F41EF06B
:1000700003C0589A01C058980F910FBF0F9118955F
:10008000429A419860E064B965B9409A63B140987A
:1000900067FDFBCF6FEF64B9089541984298409A8D
:1000A00035B940980895419A4298409A35B9409898
:1000B00008953591303019F0F6DFE2DFFACF089578
:1000C0006FEF64B967B938E3E8DFDADF31E0E5DF25
:0A00D000D7DF32E0E2DFD4DF08954D
:00000001FF
