:020000020000FC
:1000000000C00FEF0DBF04E00EBF10E085D09927B0
:10001000ECE8F1E075D057D09395B1E0A0E015D0B1
:1000200017D019D018D00ED010D02AD000C00FEFA2
:100030000DBF04E00EBF78948895F9CF03B101306D
:1000400021F0089500E326D0089501E323D0089518
:1000500002E320D0089503E31DD0089504E31AD0ED
:10006000089505E317D0089506E314D0089507E333
:1000700011D0089508E30ED0089509E30BD0089538
:10008000992711E031E030D0EEE8F1E039D01BD013
:10009000939508951395143041F0B1E0A0E0A10FBD
:1000A000A1500D9300270C9306C011E0B1E0A0E031
:1000B00022270D932D93B1E0A0E031E015D007D0B9
:1000C0001FD001D00895002704B903B90895429ABA
:1000D000419800E004B905B9409A03B1409807FD82
:1000E000FBCF0FEF04B9089541984298409A35B973
:1000F00040980895419A4298409A35B94098089599
:10010000903009F002C0359101C03D91303019F0B6
:10011000F1DFDDDFF5CF08950FEF04B907B938E35C
:10012000E3DFD5DF31E0E0DFD2DF32E0DDDFCFDF5C
:1001300008950F928827772705E0002EE894019113
:100140000A3058F40ED04EF0700F10F4839529F059
:100150000A94A9F70F903597089531970F906894F6
:1001600008954F935F93482F572F770F881F48F0BC
:10017000770F881F30F0750F841F18F0770F881FD6
:1001800008F468945F914F91089551CF30002B008F
:100190002D002A002F0045203D2064697620706FD5
:1001A0007220300045203D20707265636973E36FF3
:1001B000000045203D206F706572616E646F3F00E6
:00000001FF
